:100000000C9473020C949B020C949B020C94080AAF
:100010000C94080A0C94080A0C949B020C949B0202
:100020000C949B020C949B020C949B020C949B02DC
:100030000C949B020C949B020C949B020C949B02CC
:100040000C9435090C949B020C941E080C94F80730
:100050000C949B020C949B020C949B020C949B02AC
:100060000C949B020C949B02207465737428732972
:100070002E0020736B69707065642C206F7574207E
:100080006F662000206661696C65642C20616E6477
:100090002000207061737365642C200054657374B4
:1000A0002073756D6D6172793A2000206661696C0C
:1000B00065642E00207061737365642E0020736B7D
:1000C00069707065642E0054657374200000000030
:1000D0000800020100000304070000000000000007
:1000E000006661696C656400706173736564002CFF
:1000F000206C696E652000292C2066696C652000E3
:100100003D002028002920003D003A2028004173AE
:1001100073657274696F6E20006C6C725F666F75C8
:10012000725F706F696E745F74776F5F7468726509
:1001300065006C6C725F666F75725F706F696E746C
:100140005F6F6E65006C6C725F74687265655F707E
:100150006F696E745F6F6E655F74776F006C6C7241
:100160005F74776F5F706F696E745F6F6E655F74D9
:10017000776F006C6C725F6F6E655F706F696E7425
:100180005F7468726565006C6C725F6F6E655F703E
:100190006F696E745F74776F006C6C725F6F6E6501
:1001A0005F706F696E745F6F6E655F6661696C002A
:1001B0006C6C725F6F6E655F706F696E745F6F6E8F
:1001C000655F706173730000000000250028002B3C
:1001D0000000000000230026002900040404040499
:1001E00004040402020202020203030303030301E4
:1001F00002040810204080010204081020010204BB
:1002000008102000000000240027002A0031003DD3
:100210003D006469676974616C52656164283729BF
:1002200000433A5C55736572735C416873616E5C40
:100230004465736B746F705C416167204C6167202B
:1002400067616920445C41626261735F416C695F10
:100250004669746173685F416873616E5C41626294
:1002600061735F416C695F4669746173685F41687F
:1002700073616E2E696E6F0030003D3D00646967EA
:100280006974616C5265616428372900433A5C5592
:10029000736572735C416873616E5C4465736B7403
:1002A0006F705C416167204C616720676169204421
:1002B0005C41626261735F416C695F46697461733E
:1002C000685F416873616E5C41626261735F416C3B
:1002D000695F4669746173685F416873616E2E6916
:1002E0006E6F00706173736564002C206C696E65BD
:1002F0002000292C2066696C6520003D0020280024
:100300002920003D003A202800417373657274690A
:100310006F6E200072657300213D007600433A5CE9
:1003200055736572735C416873616E5C4465736B91
:10033000746F705C416167204C6167206761692060
:10034000445C41626261735F416C695F46697461DC
:1003500073685F416873616E5C41626261735F41A3
:100360006C695F4669746173685F416873616E2E82
:10037000696E6F00736D735F636F756E74003D3DE2
:10038000003300433A5C55736572735C4168736176
:100390006E5C4465736B746F705C416167204C6187
:1003A000672067616920445C41626261735F416CF0
:1003B000695F4669746173685F416873616E5C412F
:1003C000626261735F416C695F4669746173685F03
:1003D000416873616E2E696E6F006661696C656459
:1003E00000706173736564002C206C696E65200079
:1003F000292C2066696C6520003D002028002920FA
:10040000003D003A202800417373657274696F6E75
:10041000200074727565003D3D00736166650043A0
:100420003A5C55736572735C416873616E5C4465D8
:10043000736B746F705C416167204C61672067610A
:100440006920445C41626261735F416C695F466927
:10045000746173685F416873616E5C41626261736D
:100460005F416C695F4669746173685F416873617D
:100470006E2E696E6F0030003D3D006469676974DF
:10048000616C5265616428372900433A5C55736595
:1004900072735C416873616E5C4465736B746F70FA
:1004A0005C416167204C61672067616920445C4161
:1004B000626261735F416C695F4669746173685F12
:1004C000416873616E5C41626261735F416C695F38
:1004D0004669746173685F416873616E2E696E6FFF
:1004E00000009B0EEE1111241FBECFEFD8E0DEBF3F
:1004F000CDBF12E0A0E0B1E0ECEFFBE202C005905E
:100500000D92A035B107D9F723E0A0E5B2E001C014
:100510001D92AB3EB207E1F712E0C2E7D2E004C0A1
:100520002197FE010E94E615C137D107C9F70E9445
:10053000DE0F0C94F1150C940000EAE5F2E0A089BE
:10054000B18982E08C93A485B5851C92A685B78578
:100550008FEC8C93108EA489B58986E08C93A28948
:10056000B3898C9180618C93A289B3898C918860C6
:100570008C93A289B3898C9180688C930288F389CB
:10058000E02D80818F7D80830895EF92FF920F93FD
:100590001F93CF93DF93EC01623018F08F85886052
:1005A0008F876B8B1C8A80E48D8B80E18E8B80E53E
:1005B0008F8B61E08C810E94BF088D818F3F19F085
:1005C00061E00E94BF0861E08E810E94BF087E0149
:1005D00087E0E80EF11C00E010E08F8584FD03C089
:1005E00084E090E002C088E090E0081719074CF41E
:1005F00061E0F70181917F010E94BF080F5F1F4FEB
:10060000ECCF8BE39DE00197F1F760E08C810E94D5
:10061000790860E08E810E9479088D818F3F19F002
:1006200060E00E9479086F8564FD1DC063E0CE0123
:100630000E947F090BE416E4C8010197F1F763E01B
:10064000CE010E947F09C8010197F1F763E0CE0156
:100650000E947F0983E592E00197F1F762E0CE0105
:100660000E947F0916C06062CE010E94050A8BE4D9
:1006700096E40197F1F76F856062CE010E94050A4A
:1006800083E592E00197F1F76F856062CE010E94E9
:10069000050A6F856062CE010E94050A84E0888B9E
:1006A0006CE0CE010E94050A61E0CE010E94050ABD
:1006B0008BE39FE10197F1F782E0898B66E0CE0141
:1006C000DF91CF911F910F91FF90EF900C94050A4D
:1006D0000E94EC15CF92DF92EF92FF920F931F933F
:1006E000CF93DF936B01770FEE08FF08F7FE1BC077
:1006F000EC016DE20E9457068C0144275527BA0190
:100700004C195D096E097F092AE0CE010E94970607
:10071000800F911FDF91CF911F910F91FF90EF906C
:10072000DF90CF9008952AE0B701A601DF91CF9125
:100730001F910F91FF90EF90DF90CF900C94970650
:100740005F926F927F928F929F92AF92BF92CF9261
:10075000DF92EF92FF920F931F93CF93DF933C01B1
:10076000EB014A015901B601C9010E94D20B582E72
:10077000E0915802F091590281116FC0309709F44D
:100780007AC084E08483838584FF75C06EE071E065
:100790008AE592E00E945E0661EE70E08AE592E0F2
:1007A0000E945E066AE071E08AE592E00E945E06C1
:1007B000B4018AE592E00E945E0668E071E08AE595
:1007C00092E00E945E06F501608171818AE592E007
:1007D0000E946A0365E071E08AE592E00E945E068D
:1007E000B8018AE592E00E945E0662E071E08AE567
:1007F00092E00E945E06B7018AE592E00E945E06E2
:1008000060E071E08AE592E00E945E06F601608198
:1008100071818AE592E00E946A0367EF70E08AE5E1
:1008200092E00E945E06B3018AE592E00E945E06B5
:100830006FEE70E08AE592E00E945E06AE0160E035
:1008400070E02AE08AE592E00E9497066CEC71E085
:100850008AE592E00E94C2070EC0309761F083855E
:1008600085FF09C06EE071E08AE592E00E945E06B5
:1008700068EE70E093CF852DDF91CF911F910F919E
:10088000FF90EF90DF90CF90BF90AF909F908F90B0
:100890007F906F905F900895CF93DF93E4EDF0E049
:1008A0008491E6EFF1E0D491E2EEF1E0C491CC2343
:1008B00091F081110E945008EC2FF0E0EE0FFF1F25
:1008C000EF52FE4FA591B491EC91ED2381E090E0C1
:1008D00021F480E002C080E090E0DF91CF910895A4
:1008E000CF92DF92EF92FF920F931F93CF93DF93FC
:1008F0006C017A018B01C0E0D0E0CE15DF0589F0F4
:10090000D8016D918D01D601ED91FC910190F0819E
:10091000E02DC6010995892B11F47E0102C02196B4
:10092000ECCFC701DF91CF911F910F91FF90EF9016
:10093000DF90CF900895FC01538D448D252F30E03A
:10094000842F90E0821B930B541710F0CF960895DC
:1009500001970895FC01918D828D981761F0828D29
:10096000DF01A80FB11D5D968C91928D9F5F9F73E3
:10097000928F90E008958FEF9FEF0895FC01918D85
:10098000828D981731F0828DE80FF11D858D90E0F2
:1009900008958FEF9FEF0895FC01918D228D892F8F
:1009A00090E0805C9F4F821B91098F739927089577
:1009B0008AE592E00E94CC0421E0892B09F420E032
:1009C000822F0895FC01848DDF01A80FB11DA35A69
:1009D000BF4F2C91848D90E001968F739927848F5F
:1009E000A689B7892C93A089B1898C9180648C9356
:1009F000938D848D981306C00288F389E02D808141
:100A00008F7D80830895EF92FF920F931F93CF9372
:100A1000DF93EC0181E0888F9B8D8C8D981305C04E
:100A2000E889F989808185FD24C0F62E0B8D10E0C0
:100A30000F5F1F4F0F731127E02E8C8DE8120CC033
:100A40000FB607FCFACFE889F989808185FFF5CFD9
:100A5000CE010E94E204F1CF8B8DFE01E80FF11D63
:100A6000E35AFF4FF0820B8FEA89FB898081806215
:100A700007C0EE89FF896083E889F98980818064F5
:100A8000808381E090E0DF91CF911F910F91FF90E3
:100A9000EF900895CF93DF93EC01888D8823C9F000
:100AA000EA89FB89808185FD05C0A889B9898C9177
:100AB00086FD0FC00FB607FCF5CF808185FFF2CF12
:100AC000A889B9898C9185FFEDCFCE010E94E204FF
:100AD000E7CFDF91CF91089580E090E0892B29F056
:100AE0000E94D80481110C94000008953FB7F89437
:100AF0008091DE039091DF03A091E003B091E103C8
:100B000026B5A89B05C02F3F19F00196A11DB11D68
:100B10003FBFBA2FA92F982F8827820F911DA11DA3
:100B2000B11DBC01CD0142E0660F771F881F991FE0
:100B30004A95D1F708952091520230915302281717
:100B4000390771F49091500280915102981741F049
:100B5000E0915002F0E0E756FC4F808190E008956C
:100B60008FEF9FEF089508951F93CF93DF93DC01DC
:100B70005C962D913C915D972115310539F481E00A
:100B800090E013969C938E9312973DC05196ED91F1
:100B9000FC91529750969C915097892F80951FB742
:100BA0005E964C915E9741FB772770F941FD609509
:100BB000F8944081772311F0492B01C048234083EA
:100BC000E9012197F1F748E0508160FF02C0592BFD
:100BD00001C058235083E9012197F1F766954150F0
:100BE00099F7772321F090818923808303C0808146
:100BF000982B90831FBF5C968D919C915D97019778
:100C0000F1F721E030E0C901DF91CF911F91089504
:100C100020915202309153022817390771F48091C4
:100C200051022091500290E0805C9F4F821B9109FD
:100C300060E470E00E949C15089580E090E00895C3
:100C4000209152023091530228173907B9F490913C
:100C5000500280915102981789F0E0915002F0E023
:100C6000E756FC4F80812091500230E02F5F3F4FCC
:100C70002F7333272093500290E008958FEF9FEF5A
:100C80000895089580E090E00895CF93DF93EC01FC
:100C9000E881F9810084F185E02D09958C8181300E
:100CA00011F483E08C83DF91CF9108950895DC01E6
:100CB000ED91FC910190F081E02D0994EF92FF926B
:100CC0000F931F93CF93DF938C017B01C0E0D0E0A3
:100CD000F701EC0FFD1F6491662361F0D801ED91DF
:100CE000FC910190F081E02DC8010995892B11F04C
:100CF0002196EECFCE01DF91CF911F910F91FF9002
:100D0000EF9008956115710579F0FB0101900020C5
:100D1000E9F73197AF01461B570BDC01ED91FC91D0
:100D20000280F381E02D099480E090E008954F92D5
:100D30005F926F927F92EF92FF920F931F93CF93E8
:100D4000DF93CDB7DEB7A1970FB6F894DEBF0FBE25
:100D5000CDBF7C01FA01CB0119A2223008F42AE0B0
:100D60008E010F5D1F4F422E512C612C712CBF0143
:100D7000A30192010E94B015F901CA0101501109A5
:100D80006A3014F4605D01C0695CD8016C93232B58
:100D9000242B252B61F7B801C7010E948206A1967A
:100DA0000FB6F894DEBF0FBECDBFDF91CF911F917C
:100DB0000F91FF90EF907F906F905F904F9008950C
:100DC0004F925F926F927F928F929F92AF92BF925B
:100DD000CF92DF92EF92FF92CF93DF93EC016A0103
:100DE0007B01B22E9A01AB01C701B6010E94971593
:100DF000882319F06EEC71E027C026013701E894D2
:100E000077F82FEF3FEF4FE75FE7C301B2010E9492
:100E1000971581110DC02FEF3FEF4FE75FE7C3013B
:100E2000B2010E94601318161CF462ED71E00CC050
:100E30002FEF3FEF4FE75FE4C701B6010E94921525
:100E400018169CF466ED71E0CE01DF91CF91FF9012
:100E5000EF90DF90CF90BF90AF909F908F907F905A
:100E60006F905F904F900C9482062FEF3FEF4FE70B
:100E70005FECC701B6010E94601387FDE3CF20E05D
:100E800030E0A901C701B6010E94601387FF0AC0C4
:100E90006DE2CE010E9457064C01F7FAF094F7F884
:100EA000F09402C0812C912CA12C60E070E080E0D5
:100EB0009FE3AB1441F020E030E040E251E40E94B7
:100EC000F114A394F6CF9B01AC01C701B6010E94B7
:100ED00085142B013C010E9463156B017C010E946B
:100EE00065139B01AC01C301B2010E9484142B0164
:100EF0003C012AE0B701A601CE010E9497067C01C1
:100F0000E80CF91CBB2031F06EE2CE010E945706BE
:100F1000E80EF91EDB2CDD2029F120E030E040E274
:100F200051E4C301B2010E94C6132B013C010E948F
:100F300063154B01A12CB12C2AE0B501A401CE010F
:100F40000E949706E80EF91EC501B4010E946513C0
:100F50009B01AC01C301B2010E9484142B013C012E
:100F6000DA94D9CFC701DF91CF91FF90EF90DF9056
:100F7000CF90BF90AF909F908F907F906F905F9039
:100F80004F9008950F931F93CF93DF93EC010E942E
:100F900082068C016AED71E0CE010E948206800F0C
:100FA000911FDF91CF911F910F9108950F931F9380
:100FB000CF93DF93EC010E945E068C016AED71E035
:100FC000CE010E948206800F911FDF91CF911F9169
:100FD0000F9108959B01FC01628173818481958149
:100FE00097FF03C0C9010C945E06C9010C948206E8
:100FF0001F920F920FB60F9211242F933F934F938E
:101000005F936F937F938F939F93AF93BF93EF9370
:10101000FF938AE592E00E94E204FF91EF91BF9175
:10102000AF919F918F917F916F915F914F913F9180
:101030002F910F900FBE0F901F9018951F920F9237
:101040000FB60F9211242F938F939F93EF93FF93DB
:10105000E0916A02F0916B028081E0917002F09160
:10106000710282FD12C09081809173028F5F8F7335
:1010700020917402821751F0E0917302F0E0E65A79
:10108000FD4F958F8093730201C08081FF91EF9196
:101090009F918F912F910F900FBE0F901F901895D9
:1010A000833081F028F4813099F08230A1F00895E6
:1010B0008730A9F08830B9F08430D1F48091800075
:1010C0008F7D03C0809180008F778093800008958A
:1010D00084B58F7702C084B58F7D84BD08958091DB
:1010E000B0008F7703C08091B0008F7D8093B000F7
:1010F00008951F93CF93DF93282F30E0F901E35336
:10110000FF4F8491F901E151FE4FD491F901E5526D
:10111000FE4FC491CC23C9F0162F81110E945008B4
:10112000EC2FF0E0EE0FFF1FE953FE4FA591B491B5
:101130008FB7F894111105C09C91ED2FE095E9232C
:1011400002C0EC91ED2BEC938FBFDF91CF911F91FB
:101150000895CF93DF93EC0160E08E810E947908BF
:1011600061E08E810E94790860E08E810E9479089A
:101170008BE891E00197F1F7DF91CF910895CF933C
:10118000DF9390E0FC01E151FE4F2491FC01E55218
:10119000FE4F8491882361F190E0880F991FFC0134
:1011A000ED5FFD4FC591D491FC01E953FE4FA59130
:1011B000B491611109C09FB7F8948881209582236A
:1011C0008883EC912E230BC0623061F49FB7F894B2
:1011D0003881822F809583238883EC912E2B2C934A
:1011E0009FBF06C08FB7F894E8812E2B28838FBF4E
:1011F000DF91CF9108958F929F92AF92BF92CF923D
:10120000DF92EF92FF926B017C010E9476054B0109
:101210005C01C114D104E104F104F1F00E947605EF
:10122000DC01CB0188199909AA09BB09883E9340C2
:10123000A105B10570F321E0C21AD108E108F10857
:1012400088EE880E83E0981EA11CB11CC114D10445
:10125000E104F10419F7DDCFFF90EF90DF90CF901C
:10126000BF90AF909F908F9008951F920F920FB6EE
:101270000F9211242F933F938F939F93AF93BF931C
:101280008091DA039091DB03A091DC03B091DD0340
:101290003091D90323E0230F2D3720F40196A11DAF
:1012A000B11D05C026E8230F0296A11DB11D209394
:1012B000D9038093DA039093DB03A093DC03B0930C
:1012C000DD038091DE039091DF03A091E003B091F4
:1012D000E1030196A11DB11D8093DE039093DF030E
:1012E000A093E003B093E103BF91AF919F918F91E1
:1012F0003F912F910F900FBE0F901F901895CF9296
:10130000DF92EF92FF920F931F93CF93DF937C01B5
:101310006C0187E0C80ED11CC0E0D0E0062F10E0C1
:10132000B8010C2E02C0759567950A94E2F76170BA
:10133000F60181916F010E9479082196C430D10590
:1013400079F7C701DF91CF911F910F91FF90EF9037
:10135000DF90CF900C94A908CF92DF92EF92FF928A
:101360000F931F93CF93DF93EC01F62E642F8C81A4
:101370000E9479088D818F3F19F060E00E94790802
:101380008F850F2D10E084FF25C06E0187E0C80E09
:10139000D11CE12CF12CB8010E2C02C0759567957B
:1013A0000A94E2F76170F60181916F010E94790859
:1013B000FFEFEF1AFF0A88E0E816F10461F7CE01AB
:1013C000DF91CF911F910F91FF90EF90DF90CF9021
:1013D0000C94A908B80184E0759567958A95E1F7A2
:1013E000CE010E947F096F2DCE01DF91CF911F9119
:1013F0000F91FF90EF90DF90CF900C947F0941E028
:101400000E94AC0981E090E0089540E00C94AC09A2
:101410001F920F920FB60F9211242F933F934F9369
:101420005F936F937F938F939F93AF93BF93EF934C
:10143000FF93E0915202F0915302309709F451C0AA
:10144000968DA685B785858591FF04C09C918923DB
:1014500029F447C09C91892309F043C0A389B4892A
:101460009C918589809589238C938689978901979A
:10147000F1F7608D718DA685B785558538E020E040
:10148000CB010197F1F7822F90E095958795282F52
:101490004C91452309F02068315091F7868D81FDEC
:1014A00020958091510290E001968F739927309199
:1014B0005002381749F0A0915102B0E0A756BC4F36
:1014C0002C938093510203C0868D8160868F828D1C
:1014D000938D0197F1F7A389B4899C918589892B14
:1014E0008C93FF91EF91BF91AF919F918F917F91DD
:1014F0006F915F914F913F912F910F900FBE0F9081
:101500001F9018959F92AF92BF92CF92DF92EF9269
:10151000FF920F931F93CF93DF93CDB7DEB728973A
:101520000FB6F894DEBF0FBECDBF8C0186EB91E005
:10153000F8019183808380EB91E096838583CB01D2
:10154000770FAA0BBB0BB06887839087A187B28700
:101550008FE18387148286E5E82E82E0F82EF7017A
:10156000C080D180C114D10409F454C0A12CB12C85
:10157000FA2DF3709F2EA1F5F80187819085A18542
:10158000B285B501680F791FB7FF07C044E050E08E
:10159000CE0105960E94571309C0FB0180819181FD
:1015A000A281B3818D839E83AF83B887F601878143
:1015B0009085A185B285B501680F791FB7FF07C077
:1015C00044E050E0CE0101960E94571309C0FB0190
:1015D00080819181A281B38189839A83AB83BC830B
:1015E000892D90E0E5E0F0E0EC0FFD1FE80FF91F1A
:1015F0002081E1E0F0E0EC0FFD1FE80FF91F808192
:10160000281740F0821778F1222321F0FFEFAF1A5C
:10161000BF0AAECFF70180819181F8019383828365
:10162000F701118300838091540290915502019635
:10163000909355028093540282EC91E0F8019183DB
:10164000808328960FB6F894DEBF0FBECDBFDF9122
:10165000CF911F910F91FF90EF90DF90CF90BF90AF
:10166000AF909F900895F701E080F180F2E0EF0ED7
:10167000F11C75CF809194039091950303970CF022
:1016800068C06DED71E087E593E00E94C20760EDF0
:1016900077E080E090E00E94FB0867EE71E087E56C
:1016A00093E00E94C20760ED77E080E090E00E9446
:1016B000FB0860E072E087E593E00E94C20768ECF7
:1016C00070E080E090E00E94FB086AE187E593E02B
:1016D0000E9457066AED71E087E593E00E9482065A
:1016E00068E873E180E090E00E94FB0862E172E04C
:1016F00087E593E00E94C20760ED77E080E090E02C
:101700000E94FB0860E072E087E593E00E94C20758
:1017100068EC70E080E090E00E94FB086AE187E5F9
:1017200093E00E9457066AED71E087E593E00E941E
:10173000820668E873E180E090E00E94FB088091F7
:10174000940390919503019690939503809394034D
:1017500091CF81E090E09093980380939703E0917C
:101760008903E23010F4E15001C0E1E0F0E0EA5812
:10177000FC4F6489606886E793E00E94050A6BE28B
:1017800072E086E793E00E948206892B19F081E0DF
:101790008093960361E08DE00E94790861E087E024
:1017A0000C947908FC0181E0DB014D915C91208172
:1017B00031814217530709F080E00895089524E02D
:1017C000FC012483089526EB31E0FC013183208362
:1017D000E0915602F0915702A6E5B2E0309771F021
:1017E000E817F90729F4828193818D939C930895DA
:1017F000DF0112960280F381E02DF0CF0895CF92A1
:10180000DF92EF92FF920F931F93CF93DF9300D05D
:10181000CDB7DEB783E090E09A83898384E9C82E50
:1018200083E0D82E94E7E92E93E0F92E0EE713E03B
:101830009E012F5F3F4F41E853E06BE870E083E883
:1018400093E00E94A0030F900F90DF91CF911F9122
:101850000F91FF90EF90DF90CF900895CF92DF929D
:10186000EF92FF920F931F93CF93DF9300D000D09E
:10187000CDB7DEB71C821B820E944C049A838983F9
:10188000CE0103966C0186E7E82E84E0F82E08E787
:1018900014E09E012F5F3F4F4BE754E068E970E092
:1018A0008AE894E00E94A0030F900F900F900F9091
:1018B000DF91CF911F910F91FF90EF90DF90CF902C
:1018C00008958091E603E0915802F091590288232F
:1018D00009F471C0309709F46DC0838585FF7CC021
:1018E00067E074E08AE592E00E945E0661EE73E0D4
:1018F0008AE592E00E945E0663E074E08AE592E089
:101900000E945E066AE174E08AE592E00E945E064B
:1019100061E074E08AE592E00E945E066091E60371
:1019200070E08AE592E00E946A036EEF73E08AE558
:1019300092E00E945E0667E174E08AE592E00E9410
:101940005E066BEF73E08AE592E00E945E0662E15C
:1019500074E08AE592E00E945E0669EF73E08AE532
:1019600092E00E945E0661E070E08AE592E00E94EB
:101970006A0360EF73E08AE592E00E945E066FE121
:1019800074E08AE592E00E945E0668EE73E08AE504
:1019900092E00E945E062AE044E950E060E070E0D8
:1019A0008AE592E00E9497066CEC71E08AE592E08D
:1019B0000C94C2070895309771F084E08483838586
:1019C00084FF089567E074E08AE592E00E945E0675
:1019D0006AED73E08DCF08950895E0915802F0917B
:1019E0005902309709F472C0838585FF6FC069E0A2
:1019F00073E08AE592E00E945E0663EE72E08AE59B
:101A000092E00E945E0665E073E08AE592E00E9443
:101A10005E066BE173E08AE592E00E945E0663E099
:101A200073E08AE592E00E945E0622E040E050E02A
:101A300068E473E48AE592E00E94E00660E073E007
:101A40008AE592E00E945E0668E173E08AE592E032
:101A50000E945E066DEF72E08AE592E00E945E06EB
:101A600064E173E08AE592E00E945E066BEF72E04B
:101A70008AE592E00E945E0622E040E050E068ECD9
:101A800072E48AE592E00E94E00662EF72E08AE585
:101A900092E00E945E066DE173E08AE592E00E94AA
:101AA0005E066AEE72E08AE592E00E945E062AE037
:101AB00046E850E060E070E08AE592E00E94970618
:101AC0006CEC71E08AE592E00C94C2070895CF9225
:101AD000DF92EF92FF920F931F93CF93DF9300D08B
:101AE00000D0CDB7DEB7E1E0809189038111E0E05D
:101AF000E195F0E0EA58FC4F6489606886E793E07E
:101B00000E94050A61E472E086E793E00E94820683
:101B100080E090E0AAEFB3E48093E2039093E303C4
:101B2000A093E403B093E5030E943A0B81E090E0B8
:101B30009C838B830E944C049A838983CE010396F5
:101B40006C018DE0E82E82E0F82E0FE012E09E019D
:101B50002F5F3F4F42E152E065E770E081E292E0A3
:101B60000E94A0030F900F900F900F90DF91CF91E4
:101B70001F910F91FF90EF90DF90CF900895CF923B
:101B8000DF92EF92FF920F931F93CF93DF9300D0DA
:101B900000D0CDB7DEB7E1E0809189038111E0E0AC
:101BA000E195F0E0EA58FC4F6489606886E793E0CD
:101BB0000E94050A61E472E086E793E00E948206D3
:101BC00080E090E0A0E2B0E48093E2039093E3032E
:101BD000A093E403B093E5031C821B820E944C0493
:101BE0009A838983CE0103966C0188E7E82E82E010
:101BF000F82E0AE712E09E012F5F3F4F4DE752E0BB
:101C00006BE770E08CE892E00E94A0030F900F90C9
:101C10000F900F90DF91CF911F910F91FF90EF9058
:101C2000DF90CF90089524E831E0FC0131832083D8
:101C30000C94E30BCF93DF93EC010E94130ECE01C3
:101C4000DF91CF910C94BF1226E731E0FC01318384
:101C500020830C94E30BCF93DF93EC010E94240EBE
:101C6000CE01DF91CF910C94BF1228E631E0FC0148
:101C7000318320830C94E30BCF93DF93EC010E941C
:101C8000350ECE01DF91CF910C94BF122AE531E0E1
:101C9000FC01318320830C94E30BCF93DF93EC01A1
:101CA0000E94460ECE01DF91CF910C94BF122CE41E
:101CB00031E0FC01318320830C94E30BCF93DF935D
:101CC000EC010E94570ECE01DF91CF910C94BF1210
:101CD0002EE331E0FC01318320830C94E30BCF939E
:101CE000DF93EC010E94680ECE01DF91CF910C943E
:101CF000BF1220E331E0FC01318320830C94E30B1D
:101D0000CF93DF93EC010E94790ECE01DF91CF914A
:101D10000C94BF1222E231E0FC01318320830C9449
:101D2000E30BCF93DF93EC010E948A0ECE01DF918B
:101D3000CF910C94BF12CF92DF92EF92FF9210924C
:101D40005D0210925C0298EEC92E93E0D92EE12C30
:101D5000F12CC0925E02D0925F02E0926002F0929B
:101D6000610280E191E090935B0280935A0285ECDE
:101D700090E0909367028093660284EC90E09093E9
:101D800069028093680280EC90E090936B028093EC
:101D90006A0281EC90E090936D0280936C0282EC79
:101DA00090E090936F0280936E0286EC90E09093A7
:101DB000710280937002109273021092740210925A
:101DC000750210927602109279031092780384EAD9
:101DD00091E090937703809376038CE080937A036D
:101DE0008FEF80937B038BE080937C0385E080936F
:101DF0007D0384E080937E0383E080937F0382E011
:101E000080938003109281031092820310928303C7
:101E1000109284031092850361E086E793E00E94AC
:101E2000C50210925A0310925903C0925B03D092DC
:101E30005C03E0925D03F0925E0382E991E090938F
:101E400058038093570310926E0310926D03109203
:101E5000700310926F03109272031092710310922C
:101E6000740310927303609175036E7F6D7F6093AE
:101E700075036695617081E068278AE00E947908A1
:101E800061E08AE00E94BF08E9EFF1E0E491E093AD
:101E90006703E5EEF1E0E491F0E0EE0FFF1FE95398
:101EA000FE4F85919491909369038093680360E05D
:101EB00089E00E94BF088091750381FD04C061E044
:101EC00089E00E94790889E080936303E8EFF1E0FC
:101ED000E491E0936403E4EEF1E0E491F0E0EE0FCE
:101EE000FF1FEF52FE4F859194919093660380936C
:101EF000650360EB71E08BE493E00E94820A84E862
:101F000091E090934C0380934B0369E971E08FE378
:101F100093E00E94820A86E791E0909340038093C9
:101F20003F0367E871E083E393E00E94820A88E65A
:101F300091E0909334038093330363E771E087E289
:101F400093E00E94820A8AE591E0909328038093AF
:101F500027036DE571E08BE193E00E94820A8CE437
:101F600091E090931C0380931B0365E471E08FE084
:101F700093E00E94820A8EE391E090931003809395
:101F80000F0362E371E083E093E00E94820A80E342
:101F900091E0909304038093030369E171E087EF7C
:101FA00092E00E94820A82E291E09093F80280938C
:101FB000F702FF90EF90DF90CF900895789484B56A
:101FC000826084BD84B5816084BD85B5826085BD35
:101FD00085B5816085BD80916E00816080936E00C3
:101FE00010928100809181008260809381008091B5
:101FF0008100816080938100809180008160809366
:1020000080008091B10084608093B1008091B00025
:1020100081608093B00080917A00846080937A0020
:1020200080917A00826080937A0080917A0081604A
:1020300080937A0080917A00806880937A00109271
:10204000C1000E949D0260E08FE00E94BF0861E035
:102050008DE00E94BF0861E087E00E94BF081092F7
:102060007203109271031092700310926F0310921A
:102070006E0310926D038DE991E090937403809349
:10208000730390916303963108F057C02DEB30E055
:1020900030936E0320936D032BE931E0309370038E
:1020A00020936F032CE231E030937203209371038D
:1020B00020916800983050F031E09E3008F430E014
:1020C00081E001C0880F3A95EAF701C084E0822BD5
:1020D00080936800983038F09E3040F0963148F098
:1020E00020E030E008C02DE630E005C02BE630E00F
:1020F00002C02CE630E030936B0320936A039830E3
:1021000030F481E001C0880F9A95EAF70EC0292FBC
:1021100030E09E3018F42850310902C02E503109A9
:1021200081E001C0880F2A95EAF780936C038091C3
:102130007303909174030197F1F78091710390916B
:102140007203892B49F1E0915202F091530283E02E
:10215000E735F80709F1309739F0A389B4899C91E4
:102160008589809589238C93809175038E7F8093D8
:102170007503109251021092500287E593E09093FC
:10218000530280935202E0916A03F0916B039081B5
:1021900080916C03892B80830E949D0262E086E718
:1021A00093E00E94C50264EF71E080E090E00E943D
:1021B000FB08CC24C39486E5E82E82E0F82EF701D4
:1021C00080819181009709F4F7C090935902809320
:1021D0005802DC0114962C911497213039F4ED91BA
:1021E000FC910280F381E02D099511C021110FC0EF
:1021F000DC01ED91FC910190F081E02D0995E091D9
:102200005802F09159028481811101C0C482E09189
:102210005802F09159028481D701ED91FC911197F8
:10222000813009F4C4C0828193818D939C93C091C5
:102230005802D09159028C8101E0833009F000E00E
:1022400011E0843009F010E0DD24D394823009F0ED
:10225000D12C011105C011110EC0D11017C055C0ED
:1022600080919203909193030196909393038093AE
:102270009203112349F0809190039091910301966C
:102280009093910380939003DD2079F080918E03E9
:1022900090918F03019690938F0380938E032097E4
:1022A000A1F18B8583FD09C094C0002309F487C088
:1022B000209759F18B8582FF8EC067EC70E08AE52C
:1022C00092E00E945E06ED81FE810190F081E02D9A
:1022D0006AE572E0CE0105960995DD2031F06DEBDF
:1022E00070E08AE592E00E94D607002331F064EBAB
:1022F00070E08AE592E00E94D607112331F06BEA84
:1023000070E08AE592E00E94D60780915602909193
:102310005702892B09F053CF6CE970E08AE592E00F
:102320000E945E06409192035091930360E070E03A
:102330002AE08AE592E00E94970662E970E08AE569
:1023400092E00E945E06409190035091910360E0FC
:1023500070E02AE08AE592E00E94970664E870E067
:102360008AE592E00E945E0640918E0350918F03B1
:1023700060E070E02AE08AE592E00E94970662E75A
:1023800070E08AE592E00E945E064091540250910E
:10239000550260E070E02AE08AE592E00E9497062C
:1023A00068E670E08AE592E00E94D60708CF7F01D8
:1023B000B2E0EB0EF11C03CF0E946C05FCCE1123A2
:1023C00009F4A3CF209709F4A0CF8B8581FF9DCF7F
:1023D00074CF01116FCF1111F8CF97CF87EF92E033
:1023E0000E948A0E83E093E00E94790E8FE093E0D2
:1023F0000E94680E8BE193E00E94570E87E293E003
:102400000E94460E83E393E00E94350E8FE393E033
:102410000E94240E8BE493E00E94130E82E991E067
:1024200090935803809357038091520290915302E6
:102430008755934071F4E0916A03F0916B039081AA
:1024400080916C03809589238083109253021092AF
:1024500052020895CF93DF938230910510F482E009
:1024600090E0E091E903F091EA0320E030E0C0E081
:10247000D0E0309711F14081518148175907C0F0E1
:102480004817590761F482819381209719F09B8343
:102490008A832BC09093EA038093E90326C0211519
:1024A000310519F04217530718F49A01BE01DF01F4
:1024B000EF010280F381E02DDCCF2115310509F118
:1024C000281B390B2430310590F412968D919C9184
:1024D00013976115710521F0FB019383828304C07A
:1024E0009093EA038093E903FD01329644C0FD0115
:1024F000E20FF31F81939193225031092D933C9366
:102500003AC02091E7033091E803232B41F4209156
:102510000201309103013093E8032093E7032091F7
:102520000001309101012115310541F42DB73EB76D
:102530004091040150910501241B350BE091E70304
:10254000F091E803E217F307A0F42E1B3F0B2817C6
:10255000390778F0AC014E5F5F4F2417350748F01C
:102560004E0F5F1F5093E8034093E70381939193CD
:1025700002C0E0E0F0E0CF01DF91CF9108950F932A
:102580001F93CF93DF93009709F48CC0FC0132971F
:10259000138212820091E9031091EA0301151105DB
:1025A00081F420813181820F931F2091E7033091C4
:1025B000E8032817390779F5F093E803E093E70378
:1025C00071C0D80140E050E0AE17BF0750F412963A
:1025D0002D913C911397AD012115310509F1D901D8
:1025E000F3CF9D01DA013383228360817181860FED
:1025F000971F8217930769F4EC0128813981260F10
:10260000371F2E5F3F4F318320838A819B819383C5
:102610008283452B29F4F093EA03E093E90342C057
:102620001396FC93EE931297ED01499159919E01F7
:10263000240F351FE217F30771F480819181840F15
:10264000951F029611969C938E9382819381139687
:102650009C938E931297E0E0F0E0D80112968D9152
:102660009C911397009719F0F8018C01F6CF8D918A
:102670009C9198012E5F3F4F820F931F2091E7039B
:102680003091E8032817390769F4309729F410923C
:10269000EA031092E90302C0138212821093E80346
:1026A0000093E703DF91CF911F910F910895FB01F4
:1026B000DC0102C005900D9241505040D8F70895BA
:1026C0000E94A21308F481E00895E89409C097FBE2
:1026D0003EF490958095709561957F4F8F4F9F4FF9
:1026E0009923A9F0F92F96E9BB279395F69587953D
:1026F00077956795B795F111F8CFFAF4BB0F11F400
:1027000060FF1BC06F5F7F4F8F4F9F4F16C08823A6
:1027100011F096E911C0772321F09EE8872F762FDC
:1027200005C0662371F096E8862F70E060E02AF01D
:102730009A95660F771F881FDAF7880F9695879509
:1027400097F90895990F0008550FAA0BE0E8FEEFDE
:1027500016161706E807F907C0F012161306E40765
:10276000F50798F0621B730B840B950B39F40A265E
:1027700061F0232B242B252B21F408950A2609F43C
:10278000A140A6958FEF811D811D08950E94D91348
:102790000C944A140E943C1438F00E94431420F018
:1027A000952311F00C9433140C94391411240C94C7
:1027B0007E140E945B1470F3959FC1F3950F50E057
:1027C000551F629FF001729FBB27F00DB11D639FE3
:1027D000AA27F00DB11DAA1F649F6627B00DA11D89
:1027E000661F829F2227B00DA11D621F739FB00D2F
:1027F000A11D621F839FA00D611D221F749F33279F
:10280000A00D611D231F849F600D211D822F762F37
:102810006A2F11249F5750409AF0F1F088234AF014
:10282000EE0FFF1FBB1F661F771F881F9150504080
:10283000A9F79E3F510580F00C9433140C947E143C
:102840005F3FE4F3983ED4F3869577956795B79507
:10285000F795E7959F5FC1F7FE2B880F911D969521
:10286000879597F9089597F99F6780E870E060E091
:1028700008959FEF80EC089500240A941616170619
:1028800018060906089500240A9412161306140661
:1028900005060895092E0394000C11F4882352F0C4
:1028A000BB0F40F4BF2B11F460FF04C06F5F7F4F7C
:1028B0008F4F9F4F089557FD9058440F551F59F063
:1028C0005F3F71F04795880F97FB991F61F09F3F1D
:1028D00079F087950895121613061406551FF2CF46
:1028E0004695F1DF08C0161617061806991FF1CF96
:1028F00086957105610508940895E894BB276627BD
:102900007727CB0197F908955058BB27AA270E9433
:102910009C140C944A140E943C1438F00E944314F6
:1029200020F039F49F3F19F426F40C9439140EF476
:10293000E095E7FB0C943314E92F0E945B1458F3E5
:10294000BA17620773078407950720F079F4A6F594
:102950000C947D140EF4E0950B2EBA2FA02D0B01D4
:10296000B90190010C01CA01A0011124FF27591BD4
:1029700099F0593F50F4503E68F11A16F040A22FDA
:10298000232F342F4427585FF3CF4695379527954B
:10299000A795F0405395C9F77EF41F16BA0B620B4A
:1029A000730B840BBAF09150A1F0FF0FBB1F661F91
:1029B000771F881FC2F70EC0BA0F621F731F841FD4
:1029C00048F4879577956795B795F7959E3F08F0FA
:1029D000B0CF9395880F08F09927EE0F97958795BC
:1029E00008950E9405150C944A140E94431458F04F
:1029F0000E943C1440F029F45F3F29F00C943314FA
:102A000051110C947E140C9439140E945B1468F3D9
:102A10009923B1F3552391F3951B550BBB27AA2797
:102A200062177307840738F09F5F5F4F220F331FD1
:102A3000441FAA1FA9F335D00E2E3AF0E0E832D099
:102A400091505040E695001CCAF72BD0FE2F29D09C
:102A5000660F771F881FBB1F261737074807AB076E
:102A6000B0E809F0BB0B802DBF01FF2793585F4FE3
:102A70003AF09E3F510578F00C9433140C947E1478
:102A80005F3FE4F3983ED4F3869577956795B795C5
:102A9000F7959F5FC9F7880F911D9695879597F9D0
:102AA0000895E1E0660F771F881FBB1F6217730749
:102AB0008407BA0720F0621B730B840BBA0BEE1F5E
:102AC00088F7E09508950E94631488F09F5798F066
:102AD000B92F9927B751B0F0E1F0660F771F881F23
:102AE000991F1AF0BA95C9F714C0B13091F00E943D
:102AF0007D14B1E008950C947D14672F782F8827FA
:102B0000B85F39F0B93FCCF3869577956795B39563
:102B1000D9F73EF490958095709561957F4F8F4FD2
:102B20009F4F08950E94A21308F48FEF08950E940A
:102B3000A213880B990B089597FB072E16F40094A7
:102B400007D077FD09D00E94D21507FC05D03EF4CE
:102B5000909581959F4F0895709561957F4F089549
:102B6000A1E21A2EAA1BBB1BFD010DC0AA1FBB1F91
:102B7000EE1FFF1FA217B307E407F50720F0A21B03
:102B8000B30BE40BF50B661F771F881F991F1A9470
:102B900069F760957095809590959B01AC01BD019A
:102BA000CF010895AA1BBB1B51E107C0AA1FBB1F81
:102BB000A617B70710F0A61BB70B881F991F5A95C9
:102BC000A9F780959095BC01CD010895EE0FFF1FE8
:102BD0000590F491E02D099481E090E0F8940C9434
:102BE000F11512E0C2E7D2E004C0FE010E94E61532
:0C2BF0002196C337D107C9F7F894FFCF36
:102BFC000000EB03800007005A02013F00000000B8
:102C0C00030570049B044A05CC04AA04BE0400000E
:102C1C000000560645068A0E910E2E0C0000000090
:102C2C0056064506790E800E610C00000000560613
:102C3C004506680E6F0EDE0B0000000056064506BA
:102C4C00570E5E0EFF0B0000000056064506460EA2
:102C5C004D0EED0C0000000056064506350E3C0EE0
:102C6C00DF0B0000000056064506240E2B0EBF0D90
:102C7C000000000056064506130E1A0E670D0000E4
:102C8C000000B40570044206B305080620069B0537
:102C9C0000000000FF09700442064106000000001D
:102CAC00EA07000000005606680300000000000060
:102CBC000000560645060000000068032E006E61F9
:102CCC006E00696E66006F7666000D0A0041542B2B
:102CDC00434D47463D310041542B434D47533D2214
:102CEC002B393139353434787878787878220D006E
:102CFC004669726520696E204E455720524F4F4DE4
:102D0C00210041542B434D47533D222B3931393847
:102D1C003437787878787878220D00466972652097
:102D2C00416C6572742120534D532053656E742190
:102D3C000046697265205363616E202D204F4E0052
:00000001FF
